:100000000C942A000C943D0C0C94720C0C94A70CCC
:100010000C9447000C9447000C9447000C94470044
:100020000C9447000C9447000C940C250C9447004A
:100030000C943C220C94D2270C9483280C944700F7
:100040000C9429020C9447000C9447000C94470030
:100050000C94470011241FBECFE5D8E0DEBFCDBF12
:1000600010E0A0E6B0E0EEECF5E502C005900D92E0
:10007000A038B107D9F720E0A0E8B0E001C01D9298
:10008000AE3DB207E1F70E94CC280C94E52A0C940F
:100090000000CF93DF9300D00F92CDB7DEB79B83E4
:1000A0008A8381E089838A819B81FC018081882FFA
:1000B00090E08230910579F1833091050CF03EC0DB
:1000C000009719F00197A1F039C087E290E0FC0198
:1000D000608187E290E06F7BFC01608387E290E0C3
:1000E000FC01608187E290E06F77FC01608328C0AB
:1000F00087E290E0FC01608187E290E06064FC01AF
:10010000608387E290E0FC01608187E290E06F7796
:10011000FC01608315C087E290E0FC01608187E20A
:1001200090E06064FC01608387E290E0FC01608104
:1001300087E290E06068FC01608302C019820000E1
:100140008981882349F18981882319F08981813047
:1001500011F587E290E0FC018081682F6F7D8A8134
:100160009B81FC018281882F90E0582F56955695EF
:100170005695482F4295440F407E842F462F482B9A
:1001800087E290E0FC0140838A819B81FC018281AF
:100190008093800001C0198289818823A1F18A811E
:1001A0009B81FC018381883051F486E290E0FC0160
:1001B000208186E290E02F7DFC01208324C086E22E
:1001C00090E0FC01408186E290E04062FC014083C7
:1001D00080E590E0FC018081482F4F718A819B81EE
:1001E000FC018381882F90E0382F3695369536951F
:1001F000282F2295220F207E822F242F282B80E566
:1002000090E0FC0120838981882371F18A819B81A0
:10021000FC018181823069F486E290E0FC0120815A
:1002200086E290E0277FFC01208382E080938200B9
:100230001BC08A819B81FC0181818130A9F486E207
:1002400090E0FC01208186E290E02860FC012083A0
:100250008FE590E0FC0120818FE590E02068FC01B3
:10026000208381E0809382008981882379F086E26F
:1002700090E0FC018081282F287F8A819B81FC01EE
:100280008481282B86E290E0FC01208389818823E9
:1002900061F086E290E0FC01208186E290E0206837
:1002A000FC01208381E08093810089810F900F9071
:1002B0000F90DF91CF910895CF93DF9300D000D0BE
:1002C000CDB7DEB78A837C836B8381E0898380919D
:1002D0008100813009F07CC040E06A8180E00E94AA
:1002E0009B0287E290E0FC018081982F907E8A81BA
:1002F000292F282B87E290E0FC01208386E290E002
:10030000FC01208186E290E02061FC01208386E2EE
:1003100090E0FC01208186E290E02064FC012083D3
:10032000000086E290E0FC01808182958F70882F2A
:1003300090E0817099270197A1F78091800081302A
:1003400039F584E290E0FC0180818295869586955E
:100350008370282F30E08B819C81FC0131832083C6
:1003600085E290E0FC018081882F90E09C01220FC3
:10037000331F220F331F8B819C81FC01808191816F
:10038000282B392B8B819C81FC013183208321C058
:1003900084E290E0FC018081282F30E08B819C81F9
:1003A000FC013183208385E290E0FC018081882F6D
:1003B00090E0382F22278B819C81FC0180819181E4
:1003C000282B392B8B819C81FC013183208301C038
:1003D000198289810F900F900F900F90DF91CF912C
:1003E0000895CF93DF9300D000D0CDB7DEB78A83D6
:1003F0007C836B8381E0898380918100813009F562
:1004000040E06A8180E00E949B0287E290E0FC016C
:100410008081982F907E8A81292F282B87E290E077
:10042000FC0120838B819C819093840080938300C6
:1004300086E290E0FC01208186E290E02064FC01ED
:10044000208389810F900F900F900F90DF91CF91B3
:1004500008951F920F920FB60F9211242F933F937E
:100460004F935F936F937F938F939F93AF93BF93BC
:10047000EF93FF93CF93DF9300D0CDB7DEB780919A
:10048000830090918400892B09F43FC08091800003
:100490008130E9F484E290E0FC01808182958695C8
:1004A00086958370882F90E09A83898385E290E017
:1004B000FC018081882F90E0880F991F880F991F79
:1004C00029813A81822B932B9A83898316C084E2F7
:1004D00090E0FC018081882F90E09A83898385E2F7
:1004E00090E0FC018081882F90E0982F8827298157
:1004F0003A81822B932B9A838983209183003091B8
:10050000840089819A81F901099500000F900F906C
:10051000DF91CF91FF91EF91BF91AF919F918F911B
:100520007F916F915F914F913F912F910F900FBEEF
:100530000F901F901895CF93DF9300D000D0CDB7C8
:10054000DEB78A836B834C8381E089838B8188301B
:1005500008F0A6C08A81882F90E08330910509F4C5
:100560007AC0843091050CF099C08230910509F46D
:100570004FC0833091050CF091C0009719F001979E
:1005800021F18CC08AE390E0FC018081482F8B81AF
:10059000282F30E081E090E002C0880F991F2A9553
:1005A000E2F7809548238C81882F90E02B81222FC1
:1005B00030E002C0880F991F2A95E2F7242F282BDC
:1005C0008AE390E0FC0120836CC087E390E0FC01AB
:1005D0008081482F8B81282F30E081E090E002C09D
:1005E000880F991F2A95E2F7809548238C81882FE0
:1005F00090E02B81222F30E002C0880F991F2A95AE
:10060000E2F7242F282B87E390E0FC01208349C0E8
:1006100084E390E0FC018081482F8B81282F30E01B
:1006200081E090E002C0880F991F2A95E2F780953B
:1006300048238C81882F90E02B81222F30E002C04C
:10064000880F991F2A95E2F7242F282B84E390E046
:10065000FC01208326C081E390E0FC018081482FCB
:100660008B81282F30E081E090E002C0880F991F35
:100670002A95E2F7809548238C81882F90E02B8182
:10068000222F30E002C0880F991F2A95E2F7242F0D
:10069000282B81E390E0FC01208303C0198201C074
:1006A000198289810F900F900F900F90DF91CF9159
:1006B0000895CF93DF9300D00F92CDB7DEB78A8332
:1006C0006B8381E089838A81882F90E08330910554
:1006D00001F1843091051CF582309105A1F0833041
:1006E0009105ECF4009719F0019739F018C08AE3EE
:1006F00090E02B81FC01208314C08AE390E02B81E1
:10070000FC0120830EC08AE390E02B81FC01208352
:1007100008C08AE390E02B81FC01208302C019828B
:10072000000089810F900F900F90DF91CF91089575
:10073000CF93DF9300D000D0CDB7DEB78A836B8331
:100740004C8381E089838B81883008F0A6C08A8140
:10075000882F90E08330910509F47AC084309105A8
:100760000CF099C08230910509F44FC08330910597
:100770000CF091C0009719F0019721F18CC08BE328
:1007800090E0FC018081482F8B81282F30E081E0B0
:1007900090E002C0880F991F2A95E2F780954823C0
:1007A0008C81882F90E02B81222F30E002C0880FAF
:1007B000991F2A95E2F7242F282B8BE390E0FC0168
:1007C00020836CC088E390E0FC018081482F8B81FE
:1007D000282F30E081E090E002C0880F991F2A9511
:1007E000E2F7809548238C81882F90E02B81222F7F
:1007F00030E002C0880F991F2A95E2F7242F282B9A
:1008000088E390E0FC01208349C085E390E0FC018F
:100810008081482F8B81282F30E081E090E002C05A
:10082000880F991F2A95E2F7809548238C81882F9D
:1008300090E02B81222F30E002C0880F991F2A956B
:10084000E2F7242F282B85E390E0FC01208326C0CB
:1008500082E390E0FC018081482F8B81282F30E0DB
:1008600081E090E002C0880F991F2A95E2F78095F9
:1008700048238C81882F90E02B81222F30E002C00A
:10088000880F991F2A95E2F7242F282B82E390E006
:10089000FC01208303C0198201C0198289810F9055
:1008A0000F900F900F90DF91CF910895CF93DF932A
:1008B00000D00F92CDB7DEB78A836B8381E0898346
:1008C0008A81882F90E08330910501F18430910571
:1008D0001CF582309105A1F083309105ECF400976E
:1008E00019F0019739F018C08BE390E02B81FC01DF
:1008F000208314C088E390E02B81FC0120830EC08C
:1009000085E390E02B81FC01208308C082E390E026
:100910002B81FC01208302C01982000089810F9085
:100920000F900F90DF91CF910895CF93DF9300D078
:1009300000D00F92CDB7DEB78A836B835D834C8383
:1009400081E089838B81883008F06DC08A81882F8F
:1009500090E08330910509F44FC0843091050CF08C
:1009600060C08230910599F1833091050CF059C037
:10097000009719F00197B1F054C089E390E0FC01B1
:100980008081882F90E02B81222F30E002C0959546
:1009900087952A95E2F7282F21708C819D81FC0193
:1009A000208342C086E390E0FC018081882F90E0A4
:1009B0002B81222F30E002C0959587952A95E2F78A
:1009C000282F21708C819D81FC0120832DC083E321
:1009D00090E0FC018081882F90E02B81222F30E075
:1009E00002C0959587952A95E2F7282F21708C8172
:1009F0009D81FC01208318C080E390E0FC01808190
:100A0000882F90E02B81222F30E002C095958795AA
:100A10002A95E2F7282F21708C819D81FC0120838B
:100A200003C0198201C0198289810F900F900F9025
:100A30000F900F90DF91CF910895CF93DF9300D067
:100A400000D0CDB7DEB78A837C836B8381E0898356
:100A50008A81882F90E08330910549F18430910597
:100A60007CF582309105D1F0833091054CF50097EB
:100A700019F0019751F024C089E390E0FC01208136
:100A80008B819C81FC0120831DC086E390E0FC01EA
:100A900020818B819C81FC01208314C083E390E042
:100AA000FC0120818B819C81FC0120830BC080E3B1
:100AB00090E0FC0120818B819C81FC01208302C09D
:100AC0001982000089810F900F900F900F90DF9195
:100AD000CF910895CF93DF9300D000D0CDB7DEB78C
:100AE0008A836B834C8381E089838B81883008F013
:100AF000A6C08A81882F90E08330910509F47AC0DE
:100B0000843091050CF099C08230910509F44FC0F2
:100B1000833091050CF091C0009719F0019721F1F5
:100B20008CC08BE390E0FC018081482F8B81282FC3
:100B300030E081E090E002C0880F991F2A95E2F72B
:100B4000809548238C81882F90E02B81222F30E0E4
:100B500002C0880F991F2A95E2F7242F282B8BE3D8
:100B600090E0FC0120836CC088E390E0FC01808170
:100B7000482F8B81282F30E081E090E002C0880F61
:100B8000991F2A95E2F7809548238C81882F90E061
:100B90002B81222F30E002C0880F991F2A95E2F79F
:100BA000242F282B88E390E0FC01208349C085E3B3
:100BB00090E0FC018081482F8B81282F30E081E07C
:100BC00090E002C0880F991F2A95E2F7809548238C
:100BD0008C81882F90E02B81222F30E002C0880F7B
:100BE000991F2A95E2F7242F282B85E390E0FC013A
:100BF000208326C082E390E0FC018081482F8B8116
:100C0000282F30E081E090E002C0880F991F2A95DC
:100C1000E2F7809548238C81882F90E02B81222F4A
:100C200030E002C0880F991F2A95E2F7242F282B65
:100C300082E390E0FC01208303C0198201C0198285
:100C400089810F900F900F900F90DF91CF910895B1
:100C5000CF93DF9300D00F92CDB7DEB78A836B833B
:100C600081E089838A81882F90E08330910501F1AA
:100C7000843091051CF582309105A1F083309105F7
:100C8000ECF4009719F0019739F018C08BE390E06D
:100C90002B81FC01208314C088E390E02B81FC01B0
:100CA00020830EC085E390E02B81FC01208308C0E7
:100CB00082E390E02B81FC01208302C019820000B6
:100CC00089810F900F900F90DF91CF910895CF936E
:100CD000DF9300D000D00F92CDB7DEB78D838D812A
:100CE000809385008D81898383E08A831B821C82A7
:100CF000CE0101960E94402300000F900F900F90AC
:100D00000F900F90DF91CF910895CF93DF9300D094
:100D10000F92CDB7DEB79B838A83198226C01982D2
:100D2000809185004DE750E060E070E00E94AD23C7
:100D300020918500CE010196BC01822F0E949A2449
:100D400008C020918500CE010196BC01822F0E942F
:100D50009A2489818130A9F7809185000E94C52459
:100D60008A819B8101979B838A838A819B81892BBE
:100D7000B1F6000000000F900F900F90DF91CF911F
:100D80000895CF93DF930F92CDB7DEB7898380E2CA
:100D900090E02981FC01208381E290E0FC01208128
:100DA00081E290E02E7FFC01208381E290E0FC0153
:100DB000208181E290E02D7FFC01208300000F90D4
:100DC000DF91CF910895CF93DF93CDB7DEB786E55E
:100DD00090E0FC01208186E590E02068FC01208302
:100DE00086E590E0FC01208186E590E02062FC0130
:100DF000208386E590E0FC01208186E590E0246078
:100E0000FC012083000086E590E0FC018081881FC2
:100E10008827881F882F90E081709927892B99F364
:100E200000000000DF91CF910895CF93DF93CDB7FD
:100E3000DEB786E590E0FC01208186E590E0206841
:100E4000FC01208386E590E0FC01208186E590E0AE
:100E50002062FC01208386E590E0FC01208186E58C
:100E600090E02460FC012083000086E590E0FC0116
:100E70008081881F8827881F882F90E0817099279C
:100E8000892B99F300000000DF91CF910895CF9353
:100E9000DF93CDB7DEB786E590E0FC01208186E5E3
:100EA00090E02068FC01208386E590E0FC01208131
:100EB00086E590E02061FC01208386E590E0FC015E
:100EC000208186E590E02460FC012083000086E517
:100ED00090E0FC018081881F8827881F882F90E080
:100EE00081709927892B99F300000000DF91CF9141
:100EF0000895CF93DF930F92CDB7DEB789838981B1
:100F0000882F90E0880F991F282F216083E290E0BE
:100F1000FC01208386E590E0FC01208186E590E0DD
:100F20002068FC01208386E590E0FC01208186E5B5
:100F300090E02460FC01208383E290E0FC012081AA
:100F400083E290E02160FC012083000086E590E0D0
:100F5000FC018081881F8827881F882F90E081707E
:100F60009927892B99F3000000000F90DF91CF9112
:100F70000895CF93DF930F92CDB7DEB7898383E2D5
:100F800090E02981220FFC01208386E590E0FC019E
:100F9000208186E590E02068FC01208386E590E0D2
:100FA000FC01208186E590E02460FC0120830000A4
:100FB00086E590E0FC018081881F8827881F882FA4
:100FC00090E081709927892B99F3000000000F9021
:100FD000DF91CF910895CF93DF930F92CDB7DEB716
:100FE000898382E290E02981220FFC0120830000A6
:100FF0000F90DF91CF910895CF93DF93CDB7DEB7F8
:1010000086E590E024E8FC012083000086E590E07E
:10101000FC018081881F8827881F882F90E08170BD
:101020009927892B99F300000000DF91CF91089553
:10103000CF93DF93CDB7DEB786E590E024E8FC01DF
:101040002083000086E590E0FC018081881F8827CE
:10105000881F882F90E081709927892B99F30000D1
:101060000000DF91CF910895CF93DF9300D0CDB7EB
:10107000DEB79A83898386E590E0FC01208186E5CE
:1010800090E02068FC01208386E590E0FC0120814F
:1010900086E590E02460FC012083000086E590E076
:1010A000FC018081881F8827881F882F90E081702D
:1010B0009927892B99F383E290E0FC0180810F90BE
:1010C0000F90DF91CF910895CF93DF9300D0CDB7EC
:1010D000DEB79A83898386E590E0FC01208186E56E
:1010E00090E02068FC01208386E590E0FC012081EF
:1010F00086E590E02460FC012083000086E590E016
:10110000FC018081881F8827881F882F90E08170CC
:101110009927892B99F383E290E0FC0180810F905D
:101120000F90DF91CF910895CF93DF930F92CDB7BA
:10113000DEB7898383E290E02981FC01208386E584
:1011400090E0FC01208186E590E02068FC0120838E
:1011500086E590E0FC01208186E590E02460FC01BA
:101160002083000086E590E0FC018081881F8827AD
:10117000881F882F90E081709927892B99F30000B0
:1011800000000F90DF91CF910895CF93DF93CDB7FB
:10119000DEB786E590E0FC01208186E590E02068DE
:1011A000FC012083000086E590E0FC018081881F1F
:1011B0008827881F882F90E081709927892B99F3C1
:1011C00000000000DF91CF910895CF93DF9300D00E
:1011D00000D000D00F92CDB7DEB78D836E834F83E2
:1011E00080918A0090918B00892BA9F08D81898351
:1011F0008E818A831B821C82CE0101960E9440232D
:1012000067E379E08F810E94050C8F8180938800CD
:101210008D8180938900000027960FB6F894DEBF79
:101220000FBECDBFDF91CF910895CF93DF9300D054
:10123000CDB7DEB79A83898389819A81892B89F01A
:1012400081E08093870081E08093860089819A8184
:1012500090938B0080938A008091880061E00E94C7
:101260009C0900000F900F90DF91CF910895CF93CC
:10127000DF9300D0CDB7DEB780918700813009F0D1
:1012800055C080918600813089F482E08093860089
:101290008091880060E00E94120B809189004FEFDE
:1012A00050E060E070E00E94AD2340C08091860075
:1012B0008230A9F483E0809386008091880061E009
:1012C0000E94120B20918900CE010196BC01822F51
:1012D0000E942424809189000E940A2427C08091C2
:1012E0008600833019F520918900CE010296BC0159
:1012F000822F0E942424809189000E94EB238091F8
:1013000088000E94D60A80918A0090918B00892BD8
:1013100069F020918A0030918B008A81482F50E03B
:101320008981882F90E0BA01F901099500000F909A
:101330000F90DF91CF910895CF93DF9300D00F925C
:10134000CDB7DEB78A836B8381E089838A81882F5A
:1013500090E08230910509F4EAC0833091050CF0E9
:1013600017C1009721F0019709F471C011C18B8159
:10137000813099F485E590E0FC01208185E590E0DD
:101380002260FC01208385E590E0FC01208185E559
:1013900090E02160FC01208343C08B81882399F475
:1013A00085E590E0FC01208185E590E02260FC016C
:1013B000208385E590E0FC01208185E590E02E7F8B
:1013C000FC0120832DC08B81823099F485E590E06B
:1013D000FC01208185E590E02160FC01208385E50A
:1013E00090E0FC01208185E590E02D7FFC012083C9
:1013F00017C08B81833099F485E590E0FC01208152
:1014000085E590E02E7FFC01208385E590E0FC01DE
:10141000208185E590E02D7FFC01208301C01982A9
:101420008981813009F0B6C08FE590E0FC01208110
:101430008FE590E02068FC0120838BE590E0FC01C3
:1014400020818BE590E02064FC012083A3C08B8188
:10145000813099F485E590E0FC01208185E590E0FC
:101460002860FC01208385E590E0FC01208185E572
:1014700090E02460FC01208343C08B81882399F491
:1014800085E590E0FC01208185E590E02860FC0185
:10149000208385E590E0FC01208185E590E02B7FAD
:1014A000FC0120832DC08B81823099F485E590E08A
:1014B000FC01208185E590E02460FC01208385E526
:1014C00090E0FC01208185E590E0277FFC012083EE
:1014D00017C08B81833099F485E590E0FC01208171
:1014E00085E590E02B7FFC01208385E590E0FC0101
:1014F000208185E590E0277FFC01208301C01982CF
:101500008981813009F048C08FE590E0FC0120819D
:101510008FE590E02068FC0120838BE590E0FC01E2
:1015200020818BE590E02068FC01208335C08B8111
:10153000813051F484E590E0FC01208184E590E065
:101540002064FC0120830EC08B81882351F484E544
:1015500090E0FC01208184E590E02F7BFC0120835A
:1015600001C0198289818130C9F48FE590E0FC01C6
:1015700020818FE590E02068FC0120838BE590E0DE
:10158000FC0120818BE590E02062FC01208306C0F5
:10159000198205C0000003C0000001C0000089815D
:1015A0000F900F900F90DF91CF910895CF93DF931D
:1015B00000D0CDB7DEB78A8381E089838A81882F06
:1015C00090E082309105E1F0833091051CF50097A1
:1015D00019F0019759F01EC08BE590E0FC012081C5
:1015E0008BE590E02F7BFC01208316C08BE590E01B
:1015F000FC0120818BE590E02F77FC0120830CC05B
:101600008BE590E0FC0120818BE590E02F7DFC01D3
:10161000208302C01982000089810F900F90DF9112
:10162000CF910895CF93DF9300D00F92CDB7DEB75F
:101630008A836B8381E089838A81882F90E082305E
:10164000910509F4BEC0833091050CF0D6C0009717
:1016500021F0019709F45BC0D0C08B81813099F4EF
:1016600085E590E0FC01208185E590E02260FC01A9
:10167000208385E590E0FC01208185E590E02160F4
:10168000FC012083BBC08B81882399F485E590E021
:10169000FC01208185E590E02260FC01208385E546
:1016A00090E0FC01208185E590E02E7FFC01208305
:1016B000A5C08B81823099F485E590E0FC01208102
:1016C00085E590E02160FC01208385E590E0FC0148
:1016D000208185E590E02D7FFC0120838FC08B81E8
:1016E000833099F485E590E0FC01208185E590E068
:1016F0002E7FFC01208385E590E0FC01208185E5BB
:1017000090E02D7FFC01208379C0198277C08B8106
:10171000813099F485E590E0FC01208185E590E039
:101720002860FC01208385E590E0FC01208185E5AF
:1017300090E02460FC01208361C08B81882399F4B0
:1017400085E590E0FC01208185E590E02860FC01C2
:10175000208385E590E0FC01208185E590E02B7FEA
:10176000FC0120834BC08B81823099F485E590E0A9
:10177000FC01208185E590E02460FC01208385E563
:1017800090E0FC01208185E590E0277FFC0120832B
:1017900035C08B81833099F485E590E0FC01208190
:1017A00085E590E02B7FFC01208385E590E0FC013E
:1017B000208185E590E0277FFC0120831FC01982EE
:1017C0001DC08B81813051F484E590E0FC012081C3
:1017D00084E590E02064FC01208310C08B81882385
:1017E00051F484E590E0FC01208184E590E02F7BBA
:1017F000FC01208303C0198201C0198289810F90E6
:101800000F900F90DF91CF910895CF93DF9300D089
:1018100000D0CDB7DEB78A837C836B8381E0898378
:101820008A81882F90E082309105B1F08330910554
:10183000D4F4009719F0019741F015C08B819C8179
:1018400090938D0080938C0010C08B819C8190932D
:101850008F0080938E0009C08B819C8190939100B2
:101860008093900002C01982000089810F900F9030
:101870000F900F90DF91CF9108951F920F920FB6A6
:101880000F9211242F933F934F935F936F937F9306
:101890008F939F93AF93BF93EF93FF93CF93DF9378
:1018A000CDB7DEB780918C0090918D00892B31F0FF
:1018B00080918C0090918D00FC0109950000DF91D2
:1018C000CF91FF91EF91BF91AF919F918F917F91B8
:1018D0006F915F914F913F912F910F900FBE0F909D
:1018E0001F9018951F920F920FB60F9211242F93ED
:1018F0003F934F935F936F937F938F939F93AF9398
:10190000BF93EF93FF93CF93DF93CDB7DEB7809173
:101910008E0090918F00892B31F080918E009091F4
:101920008F00FC0109950000DF91CF91FF91EF91AD
:10193000BF91AF919F918F917F916F915F914F91E7
:101940003F912F910F900FBE0F901F9018951F92EF
:101950000F920FB60F9211242F933F934F935F93E3
:101960006F937F938F939F93AF93BF93EF93FF9367
:10197000CF93DF93CDB7DEB7809190009091910027
:10198000892B31F08091900090919100FC01099594
:101990000000DF91CF91FF91EF91BF91AF919F91A7
:1019A0008F917F916F915F914F913F912F910F9008
:1019B0000FBE0F901F901895CF93DF9300D0CDB737
:1019C000DEB71A820DC041E06A8182E00E949B026C
:1019D00041E06A8182E00E9498038A818F5F8A8356
:1019E0008A81843080F384E089830DC040E069817E
:1019F00082E00E949B0241E0698182E00E946A05C8
:101A000089818F5F89838981883080F30E946D147A
:101A100081E08093920000000F900F90DF91CF91B2
:101A20000895CF93DF9300D000D00F92CDB7DEB7EB
:101A30009D838C8381E08B8380919200813009F0BB
:101A400046C01A8240C040E06A8182E00E9498034A
:101A500084E089832DC0CE010396AC01698182E0C8
:101A60000E9495048B81882301F58A81282F30E01C
:101A70008981882F90E00497220F331F220F331F94
:101A8000820F931F805A9F4FFC0120818C819D8182
:101A9000FC01208307C0CE010396AC01698182E07E
:101AA0000E9495048B818823B1F389818F5F89839C
:101AB0008981883080F241E06A8182E00E94980347
:101AC0008A818F5F8A838A81843008F4BCCF0000CA
:101AD0000F900F900F900F900F90DF91CF9108957E
:101AE000CF93DF93CDB7DEB7E1970FB6F894DEBFA3
:101AF0000FBECDBF9B8B8A8B7D8B6C8B81E0898BDE
:101B000080919200813009F0E0C01A82DAC040E092
:101B10006A8182E00E94980384E08983C6C0CE0176
:101B20004196AC01698182E00E94950489898823ED
:101B300009F0B8C08981882F90E09C0124503109B8
:101B40008A81882F90E0220F331F220F331F820FCC
:101B5000931F805A9F4FDC012C918A899B89FC013D
:101B600020838C899D899C0140E050E02E8F3F8F1F
:101B700048A359A36E8D7F8D88A199A10E94C12988
:101B80006E8B7F8B888F998F8E899F89A88DB98D59
:101B90008B839C83AD83BE8320E030E04AEF54E426
:101BA0006B817C818D819E810E94502A6AA37BA3D8
:101BB0008CA39DA32AA13BA14CA15DA12F833887B3
:101BC00049875A8720E030E040E85FE36F817885FD
:101BD00089859A850E948D2988232CF481E090E0E4
:101BE0009C878B8754C020E03FEF4FE757E46F811D
:101BF000788589859A850E944B2A1816D4F520E0AD
:101C000030E040E251E46B817C818D819E810E94B5
:101C1000502A6EA37FA388A799A78EA19FA1A8A5EC
:101C2000B9A58A8F9B8FAC8FBD8F6A8D7B8D8C8D74
:101C30009D8D0E9492296AA77BA78CA79DA7AAA524
:101C4000BBA5BC87AB8710C088EC90E09E878D87D2
:101C50008D859E850197F1F79E878D8700008B8586
:101C60009C8501979C878B878B859C85892B61F749
:101C700019C06F81788589859A850E9492296EA7FF
:101C80007FA788AB99ABEEA5FFA5FC87EB878B857B
:101C90009C85988B8F878F8598890197F1F7988B12
:101CA0008F87000089818F5F89838981883008F45C
:101CB00036CF41E06A8182E00E9498038A818F5F7B
:101CC0008A838A81843008F422CF0000E1960FB61F
:101CD000F894DEBF0FBECDBFDF91CF910895CF93B3
:101CE000DF93CDB7DEB7C958D1090FB6F894DEBF80
:101CF0000FBECDBF89AF40E063E081E00E94980352
:101D000040E061E081E00E94980340E062E081E011
:101D10000E9498038BE390E0DC018C91982F9F70D8
:101D200089AD807F292F282B8BE390E0FC01208355
:101D300041E063E081E00E94980380E090E0A0E051
:101D4000B0E48BA79CA7ADA7BEA720E030E04AEF88
:101D500054E46BA57CA58DA59EA50E94502A2E96C5
:101D60006CAF7DAF8EAF9FAF2E972E968CAD9DAD95
:101D7000AEADBFAD2E978FA798ABA9ABBAAB20E0A5
:101D800030E040E85FE36FA578A989A99AA90E948D
:101D90008D2988232CF481E090E09CAB8BAB65C04F
:101DA00020E03FEF4FE757E46FA578A989A99AA9EA
:101DB0000E944B2A18160CF046C020E030E040E2AA
:101DC00051E46BA57CA58DA59EA50E94502A629624
:101DD0006CAF7DAF8EAF9FAF629762968CAD9DADBD
:101DE000AEADBFAD62972A968CAF9DAFAEAFBFAF21
:101DF0002A972A966CAD7DAD8EAD9FAD2A970E9435
:101E0000922966966CAF7DAF8EAF9FAF6697649652
:101E1000AEADBFAD6497BCABABAB10C088EC90E08F
:101E20009EAB8DAB8DA99EA90197F1F79EAB8DABB3
:101E300000008BA99CA901979CAB8BAB8BA99CA99B
:101E4000892B61F71DC06FA578A989A99AA90E945D
:101E500092296A966CAF7DAF8EAF9FAF6A976896F6
:101E6000EEADFFAD6897FCABEBAB8BA99CA998AF2F
:101E70008FAB8FA998AD0197F1F798AF8FAB0000AA
:101E800040E063E081E00E94980380E090E0A0E001
:101E9000B0E48D8F9E8FAF8FB8A320E030E04AEF83
:101EA00054E46D8D7E8D8F8D98A10E94502A6E9680
:101EB0006CAF7DAF8EAF9FAF6E976E968CAD9DADC4
:101EC000AEADBFAD6E9789A39AA3ABA3BCA320E030
:101ED00030E040E85FE369A17AA18BA19CA10E9458
:101EE0008D2988232CF481E090E09EA38DA365C00A
:101EF00020E03FEF4FE757E469A17AA18BA19CA1B5
:101F00000E944B2A18160CF046C020E030E040E258
:101F100051E46D8D7E8D8F8D98A10E94502AA296DE
:101F20006CAF7DAF8EAF9FAFA297A2968CAD9DADEB
:101F3000AEADBFADA29726968CAF9DAFAEAFBFAF93
:101F4000269726966CAD7DAD8EAD9FAD26970E94EF
:101F50009229A6966CAF7DAF8EAF9FAFA697A49641
:101F6000AEADBFADA497BEA3ADA310C088EC90E00A
:101F700098A78FA38FA198A50197F1F798A78FA392
:101F800000008DA19EA101979EA38DA38DA19EA16E
:101F9000892B61F71DC069A17AA18BA19CA10E9428
:101FA0009229AA966CAF7DAF8EAF9FAFAA97A896E5
:101FB000EEADFFADA897FEA3EDA38DA19EA19AA7BC
:101FC00089A789A59AA50197F1F79AA789A7000083
:101FD00040E063E081E00E94980340E061E081E03E
:101FE0000E94980340E062E081E00E9498038BE346
:101FF00090E0DC018C91282F2F7089AD882F90E024
:1020000082959295907F9827807F9827282B8BE345
:1020100090E0FC01208341E063E081E00E949803AE
:1020200080E090E0A0E0B0E48F87988BA98BBA8B1A
:1020300020E030E04AEF54E46F85788989899A89F5
:102040000E94502AAE966CAF7DAF8EAF9FAFAE9719
:10205000AE968CAD9DADAEADBFADAE978B8B9C8B70
:10206000AD8BBE8B20E030E040E85FE36B897C897C
:102070008D899E890E948D2988232CF481E090E02F
:10208000988F8F8B65C020E03FEF4FE757E46B8957
:102090007C898D899E890E944B2A18160CF046C0B7
:1020A00020E030E040E251E46F85788989899A899F
:1020B0000E94502AE2966CAF7DAF8EAF9FAFE29741
:1020C000E2968CAD9DADAEADBFADE29722968CAFE2
:1020D0009DAFAEAFBFAF229722966CAD7DAD8EADFA
:1020E0009FAD22970E949229E6966CAF7DAF8EAF8E
:1020F0009FAFE697E496AEADBFADE497B88FAF8BD8
:1021000010C088EC90E09A8F898F898D9A8D019705
:10211000F1F79A8F898F00008F89988D0197988F9A
:102120008F8B8F89988D892B61F71DC06B897C8976
:102130008D899E890E949229EA966CAF7DAF8EAF01
:102140009FAFEA97E896EEADFFADE897F88FEF8B7B
:102150008F89988D9C8F8B8F8B8D9C8D0197F1F73C
:102160009C8F8B8F000040E063E081E00E94980329
:1021700080E090E0A0E0B0E489839A83AB83BC83E5
:1021800020E030E04AEF54E469817A818B819C81C0
:102190000E94502AEE966CAF7DAF8EAF9FAFEE9748
:1021A000EE968CAD9DADAEADBFADEE978D839E83AB
:1021B000AF83B88720E030E040E85FE36D817E8147
:1021C0008F8198850E948D2988232CF481E090E0EE
:1021D0009A8789876DC020E03FEF4FE757E46D8114
:1021E0007E818F8198850E944B2A18160CF04AC078
:1021F00020E030E040E251E469817A818B819C816A
:102200000E94502AC258DF4F688379838A839B8358
:10221000CE57D040C258DF4F88819981AA81BB81B7
:10222000CE57D0408AAF9BAFACAFBDAF6AAD7BADF0
:102230008CAD9DAD0E949229CE57DF4F6883798384
:102240008A839B83C258D040CE57DF4FA881B98183
:10225000C258D040BA87A98710C088EC90E09C870C
:102260008B878B859C850197F1F79C878B87000076
:1022700089859A8501979A87898789859A85892B87
:1022800061F721C06D817E818F8198850E9492299E
:10229000CA57DF4F688379838A839B83C658D040AF
:1022A000CA57DF4FE881F981C658D040FA87E987DD
:1022B00089859A859E878D878D859E850197F1F703
:1022C0009E878D8700000000C757DF4F0FB6F89438
:1022D000DEBF0FBECDBFDF91CF910895CF93DF93C7
:1022E000CDB7DEB7C958D1090FB6F894DEBF0FBE1F
:1022F000CDBF89AF40E063E081E00E94980341E0F8
:1023000061E081E00E94980340E062E081E00E9489
:1023100098038BE390E0DC018C91982F9F7089AD3E
:10232000807F292F282B8BE390E0FC01208341E064
:1023300063E081E00E94980380E090E0A0E0B0E4D8
:102340008BA79CA7ADA7BEA720E030E04AEF54E4DE
:102350006BA57CA58DA59EA50E94502A2E966CAFDC
:102360007DAF8EAF9FAF2E972E968CAD9DADAEAD4F
:10237000BFAD2E978FA798ABA9ABBAAB20E030E0EA
:1023800040E85FE36FA578A989A99AA90E948D29E1
:1023900088232CF481E090E09CAB8BAB65C020E0FF
:1023A0003FEF4FE757E46FA578A989A99AA90E9442
:1023B0004B2A18160CF046C020E030E040E251E411
:1023C0006BA57CA58DA59EA50E94502A62966CAF38
:1023D0007DAF8EAF9FAF629762968CAD9DADAEAD77
:1023E000BFAD62972A968CAF9DAFAEAFBFAF2A97B5
:1023F0002A966CAD7DAD8EAD9FAD2A970E94922935
:1024000066966CAF7DAF8EAF9FAF66976496AEADAC
:10241000BFAD6497BCABABAB10C088EC90E09EAB9B
:102420008DAB8DA99EA90197F1F79EAB8DAB0000F6
:102430008BA99CA901979CAB8BAB8BA99CA9892BE1
:1024400061F71DC06FA578A989A99AA90E94922950
:102450006A966CAF7DAF8EAF9FAF6A976896EEAD10
:10246000FFAD6897FCABEBAB8BA99CA998AF8FAB8A
:102470008FA998AD0197F1F798AF8FAB000040E0BE
:1024800063E081E00E94980380E090E0A0E0B0E487
:102490008D8F9E8FAF8FB8A320E030E04AEF54E4D9
:1024A0006D8D7E8D8F8D98A10E94502A6E966CAF97
:1024B0007DAF8EAF9FAF6E976E968CAD9DADAEAD7E
:1024C000BFAD6E9789A39AA3ABA3BCA320E030E075
:1024D00040E85FE369A17AA18BA19CA10E948D29AC
:1024E00088232CF481E090E09EA38DA365C020E0BA
:1024F0003FEF4FE757E469A17AA18BA19CA10E940D
:102500004B2A18160CF046C020E030E040E251E4BF
:102510006D8D7E8D8F8D98A10E94502AA2966CAFF2
:102520007DAF8EAF9FAFA297A2968CAD9DADAEADA5
:10253000BFADA29726968CAF9DAFAEAFBFAF26972B
:1025400026966CAD7DAD8EAD9FAD26970E949229EB
:10255000A6966CAF7DAF8EAF9FAFA697A496AEAD9B
:10256000BFADA497BEA3ADA310C088EC90E098A720
:102570008FA38FA198A50197F1F798A78FA30000CB
:102580008DA19EA101979EA38DA38DA19EA1892BB4
:1025900061F71DC069A17AA18BA19CA10E9492291B
:1025A000AA966CAF7DAF8EAF9FAFAA97A896EEADFF
:1025B000FFADA897FEA3EDA38DA19EA19AA789A721
:1025C00089A59AA50197F1F79AA789A7000040E08D
:1025D00063E081E00E94980341E061E081E00E94B5
:1025E000980340E062E081E00E9498038BE390E072
:1025F000DC018C91282F2F7089AD882F90E0829577
:102600009295907F9827807F9827282B8BE390E0E6
:10261000FC01208341E063E081E00E94980380E0B8
:1026200090E0A0E0B0E48F87988BA98BBA8B20E074
:1026300030E04AEF54E46F85788989899A890E944D
:10264000502AAE966CAF7DAF8EAF9FAFAE97AE9671
:102650008CAD9DADAEADBFADAE978B8B9C8BAD8B76
:10266000BE8B20E030E040E85FE36B897C898D8998
:102670009E890E948D2988232CF481E090E0988F18
:102680008F8B65C020E03FEF4FE757E46B897C8973
:102690008D899E890E944B2A18160CF046C020E0B6
:1026A00030E040E251E46F85788989899A890E94F7
:1026B000502AE2966CAF7DAF8EAF9FAFE297E29665
:1026C0008CAD9DADAEADBFADE29722968CAF9DAF08
:1026D000AEAFBFAF229722966CAD7DAD8EAD9FADF4
:1026E00022970E949229E6966CAF7DAF8EAF9FAF86
:1026F000E697E496AEADBFADE497B88FAF8B10C050
:1027000088EC90E09A8F898F898D9A8D0197F1F7E7
:102710009A8F898F00008F89988D0197988F8F8B62
:102720008F89988D892B61F71DC06B897C898D8974
:102730009E890E949229EA966CAF7DAF8EAF9FAFC3
:10274000EA97E896EEADFFADE897F88FEF8B8F89AB
:10275000988D9C8F8B8F8B8D9C8D0197F1F79C8F23
:102760008B8F000040E063E081E00E94980380E0EE
:1027700090E0A0E0B0E489839A83AB83BC8320E03F
:1027800030E04AEF54E469817A818B819C810E9418
:10279000502AEE966CAF7DAF8EAF9FAFEE97EE9660
:1027A0008CAD9DADAEADBFADEE978D839E83AF83F7
:1027B000B88720E030E040E85FE36D817E818F8163
:1027C00098850E948D2988232CF481E090E09A87D7
:1027D00089876DC020E03FEF4FE757E46D817E8130
:1027E0008F8198850E944B2A18160CF04AC020E071
:1027F00030E040E251E469817A818B819C810E94C2
:10280000502AC258DF4F688379838A839B83CE57CF
:10281000D040C258DF4F88819981AA81BB81CE57B1
:10282000D0408AAF9BAFACAFBDAF6AAD7BAD8CADD6
:102830009DAD0E949229CE57DF4F688379838A83AA
:102840009B83C258D040CE57DF4FA881B981C25870
:10285000D040BA87A98710C088EC90E09C878B870E
:102860008B859C850197F1F79C878B870000898574
:102870009A8501979A87898789859A85892B61F737
:1028800021C06D817E818F8198850E949229CA57CF
:10289000DF4F688379838A839B83C658D040CA57A9
:1028A000DF4FE881F981C658D040FA87E9878985EA
:1028B0009A859E878D878D859E850197F1F79E87E6
:1028C0008D8700000000C757DF4F0FB6F894DEBFBA
:1028D0000FBECDBFDF91CF9108950F931F93CF937C
:1028E000DF93CDB7DEB7CC5CD1090FB6F894DEBF6D
:1028F0000FBECDBF8AE390E0DC012C918AE390E02B
:10290000206FFC01208341E061E081E00E949B0296
:1029100041E062E081E00E949B0241E063E081E0EF
:102920000E949B029E01295B3F4F80E090E0A0EF58
:10293000B1E4F90180839183A283B3838E01055BA7
:102940001F4FCE01895B9F4F20E030E04AEF54E4F7
:10295000DC016D917D918D919C910E94502AE196B0
:102960006CAF7DAF8EAF9FAFE197E1962CAD3DADE3
:102970004EAD5FADE197D8012D933D934D935C93A0
:102980001397CE01855B9F4F20E030E040E85FE386
:10299000FC0160817181828193810E948D2988234D
:1029A0004CF4CE01815B9F4F21E030E0DC012D93A0
:1029B0003C9392C0CE01855B9F4F20E03FEF4FE7F5
:1029C00057E4FC0160817181828193810E944B2ACE
:1029D00018160CF067C0CE01895B9F4F20E030E0F5
:1029E00040E251E4DC016D917D918D919C910E94BA
:1029F000502AE5966CAF7DAF8EAF9FAFE597E59619
:102A00002CAD3DAD4EAD5FADE597AD962CAF3DAF76
:102A10004EAF5FAFAD978E01015B1F4FAD966CADB2
:102A20007DAD8EAD9FADAD970E949229E9966CAFBA
:102A30007DAF8EAF9FAFE997E796EEADFFADE7971D
:102A4000D801ED93FC9325C0CE018F5A9F4F28ECFF
:102A500030E0DC012D933C93CE018F5A9F4FFC0157
:102A6000808191810197F1F79E012F5A3F4FD90143
:102A70008D939C930000CE01815B9F4F9E01215B53
:102A80003F4FF9012081318121503109DC012D9323
:102A90003C93CE01815B9F4FFC0180819181892B0A
:102AA00099F635C08E01015B1F4FCE01855B9F4FAC
:102AB000DC016D917D918D919C910E949229ED9602
:102AC0006CAF7DAF8EAF9FAFED97EB962EAD3FAD68
:102AD000EB97F80131832083CE018D5A9F4F9E01E1
:102AE000215B3F4FD9012D913C91FC013183208323
:102AF000CE018D5A9F4FDC018D919C910197F1F78A
:102B00009E012D5A3F4FF90191838083000083E39A
:102B10000E946F0E80E090E0A0E0B0E489AF9AAF31
:102B2000ABAFBCAF20E030E04AEF54E469AD7AAD22
:102B30008BAD9CAD0E94502AC358DF4F68837983C8
:102B40008A839B83CD57D040CE01CD96C358DF4FAB
:102B5000288139814A815B81CD57D040DC012D939A
:102B60003D934D935C93139720E030E040E85FE3A2
:102B7000CE01CD96FC0160817181828193810E949A
:102B80008D2988234CF4CE018F5B9F4F21E030E0EC
:102B9000DC012D933C9398C020E03FEF4FE757E4D2
:102BA000CE01CD96FC0160817181828193810E946A
:102BB0004B2A18160CF06BC020E030E040E251E4E4
:102BC00069AD7AAD8BAD9CAD0E94502ACF57DF4FD7
:102BD000688379838A839B83C158D040CF57DF4F66
:102BE000288139814A815B81C158D040A9962CAF98
:102BF0003DAF4EAF5FAFA9978E010F5B1F4FA996F8
:102C00006CAD7DAD8EAD9FADA9970E949229CB573B
:102C1000DF4F688379838A839B83C558D040CB5725
:102C2000DF4FE881F981C558D040D801ED93FC937E
:102C300025C0CE018D5B9F4F28EC30E0DC012D9349
:102C40003C93CE018D5B9F4FFC0180819181019768
:102C5000F1F79E012D5B3F4FD9018D939C930000AE
:102C6000CE018F5B9F4F9E012F5B3F4FF90120816B
:102C7000318121503109DC012D933C93CE018F5BD2
:102C80009F4FFC0180819181892B99F638C08E017C
:102C90000F5B1F4FCE01CD96DC016D917D918D9123
:102CA0009C910E949229C757DF4F688379838A835A
:102CB0009B83C958D040C757DF4F28813981C958F5
:102CC000D040F80131832083CE018B5B9F4F9E0162
:102CD0002F5B3F4FD9012D913C91FC013183208323
:102CE000CE018B5B9F4FDC018D919C910197F1F799
:102CF0009E012B5B3F4FF90191838083000082E3AB
:102D00000E946F0E80E090E0A0E0B0E48BA79CA74B
:102D1000ADA7BEA720E030E04AEF54E46BA57CA548
:102D20008DA59EA50E94502AC357DF4F68837983E3
:102D30008A839B83CD58D040C357DF4F2881398188
:102D40004A815B81CD58D0402FA738AB49AB5AABF5
:102D500020E030E040E85FE36FA578A989A99AA94F
:102D60000E948D2988232CF481E090E09CAB8BABF2
:102D700071C020E03FEF4FE757E46FA578A989A91C
:102D80009AA90E944B2A18160CF04EC020E030E0A1
:102D900040E251E46BA57CA58DA59EA50E94502A1A
:102DA000CF56DF4F688379838A839B83C159D04094
:102DB000CF56DF4F88819981AA81BB81C159D0400C
:102DC000A5968CAF9DAFAEAFBFAFA597A5966CADE6
:102DD0007DAD8EAD9FADA5970E949229CB56DF4F5A
:102DE000688379838A839B83C559D040CB56DF4F54
:102DF000A881B981C559D040BCABABAB10C088EC41
:102E000090E09EAB8DAB8DA99EA90197F1F79EAB8B
:102E10008DAB00008BA99CA901979CAB8BAB8BA9B8
:102E20009CA9892B61F721C06FA578A989A99AA9C6
:102E30000E949229C756DF4F688379838A839B83D8
:102E4000C959D040C756DF4FE881F981C959D040F0
:102E5000FCABEBAB8BA99CA998AF8FAB8FA998ADBE
:102E60000197F1F798AF8FAB00008CE20E946F0ED4
:102E700080E090E0A0E0B0E48D8F9E8FAF8FB8A38C
:102E800020E030E04AEF54E46D8D7E8D8F8D98A167
:102E90000E94502AC356DF4F688379838A839B83BD
:102EA000CD59D040C356DF4F288139814A815B819B
:102EB000CD59D04029A33AA34BA35CA320E030E036
:102EC00040E85FE369A17AA18BA19CA10E948D29B2
:102ED00088232CF481E090E09EA38DA371C020E0B4
:102EE0003FEF4FE757E469A17AA18BA19CA10E9413
:102EF0004B2A18160CF04EC020E030E040E251E4BE
:102F00006D8D7E8D8F8D98A10E94502ACF55DF4FF9
:102F1000688379838A839B83C15AD040CF55DF4F22
:102F200088819981AA81BB81C15AD040A1968CAF7A
:102F30009DAFAEAFBFAFA197A1966CAD7DAD8EAD8D
:102F40009FADA1970E949229CB55DF4F688379836B
:102F50008A839B83C55AD040CB55DF4FA881B98166
:102F6000C55AD040BEA3ADA310C088EC90E098A78E
:102F70008FA38FA198A50197F1F798A78FA30000C1
:102F80008DA19EA101979EA38DA38DA19EA1892BAA
:102F900061F721C069A17AA18BA19CA10E9492290D
:102FA000C755DF4F688379838A839B83C95AD04092
:102FB000C755DF4FE881F981C95AD040FEA3EDA380
:102FC0008DA19EA19AA789A789A59AA50197F1F736
:102FD0009AA789A700008FE00E946F0E80E090E022
:102FE000A0E0B0E48F87988BA98BBA8B20E030E00B
:102FF0004AEF54E46F85788989899A890E94502A1A
:10300000C355DF4F688379838A839B83CD5AD04031
:10301000C355DF4F288139814A815B81CD5AD04029
:103020002B8B3C8B4D8B5E8B20E030E040E85FE3E8
:103030006B897C898D899E890E948D2988232CF437
:1030400081E090E0988F8F8B71C020E03FEF4FE7D9
:1030500057E46B897C898D899E890E944B2A1816BA
:103060000CF04EC020E030E040E251E46F857889FA
:1030700089899A890E94502ACF54DF4F68837983C7
:103080008A839B83C15BD040CF54DF4F8881998175
:10309000AA81BB81C15BD0406D968CAF9DAFAEAFB6
:1030A000BFAF6D976D966CAD7DAD8EAD9FAD6D97DD
:1030B0000E949229CB54DF4F688379838A839B8354
:1030C000C55BD040CB54DF4FA881B981C55BD040F0
:1030D000B88FAF8B10C088EC90E09A8F898F898D64
:1030E0009A8D0197F1F79A8F898F00008F89988DBB
:1030F0000197988F8F8B8F89988D892B61F721C0CD
:103100006B897C898D899E890E949229C754DF4FE3
:10311000688379838A839B83C95BD040C754DF4F20
:10312000E881F981C95BD040F88FEF8B8F89988D4A
:103130009C8F8B8F8B8D9C8D0197F1F79C8F8B8F44
:10314000000081E00E946F0E80E090E0A0E0B0E41B
:1031500089839A83AB83BC8320E030E04AEF54E458
:1031600069817A818B819C810E94502AC354DF4FF0
:10317000688379838A839B83CD5BD040C354DF4FC0
:10318000288139814A815B81CD5BD0402D833E838C
:103190004F83588720E030E040E85FE36D817E8117
:1031A0008F8198850E948D2988232CF481E090E0FE
:1031B0009A87898771C020E03FEF4FE757E46D8120
:1031C0007E818F8198850E944B2A18160CF04EC084
:1031D00020E030E040E251E469817A818B819C817A
:1031E0000E94502ACF53DF4F688379838A839B8361
:1031F000C15CD040CF53DF4F88819981AA81BB81C8
:10320000C15CD04069968CAF9DAFAEAFBFAF699740
:1032100069966CAD7DAD8EAD9FAD69970E94922988
:10322000CB53DF4F688379838A839B83C55CD0400F
:10323000CB53DF4FA881B981C55CD040BA87A9873D
:1032400010C088EC90E09C878B878B859C850197CC
:10325000F1F79C878B87000089859A8501979A876B
:10326000898789859A85892B61F721C06D817E8147
:103270008F8198850E949229C753DF4F6883798395
:103280008A839B83C95CD040C753DF4FE881F981B3
:10329000C95CD040FA87E98789859A859E878D87A2
:1032A0008D859E850197F1F79E878D870000000030
:1032B000C453DF4F0FB6F894DEBF0FBECDBFDF9112
:1032C000CF911F910F910895CF93DF930F92CDB7B8
:1032D000DEB7898389810E946E1100000F90DF9113
:1032E000CF910895CF93DF9300D00F92CDB7DEB783
:1032F0009B838A8319820EC08981882F90E02A815E
:103300003B81820F931FFC0180810E946E11898195
:103310008F5F89838981882F90E02A813B81820F8A
:10332000931FFC018081882339F7000000000F9073
:103330000F900F90DF91CF910895CF93DF9300D03E
:10334000CDB7DEB789836A8389818E5F982F929586
:10335000990F990F907C8A81890F0E946F0E00004F
:103360000F900F90DF91CF910895CF93DF93CDB75A
:10337000DEB781E00E946F0E0000DF91CF910895CB
:10338000CF93DF9300D000D0CDB7DEB78A836B83B5
:103390004C8319826B818A810E949D198B8189835C
:1033A00006C080E20E946E1189818F5F89839981B6
:1033B0008C818917B0F7000000000F900F900F90DC
:1033C0000F90DF91CF910895CF93DF930F92CDB7F8
:1033D000DEB789838981813021F48FE00E946F0EEE
:1033E00006C08981882319F48BE00E946F0E0000CB
:1033F0000F90DF91CF910895CF93DF93CDB7DEB7D4
:1034000063970FB6F894DEBF0FBECDBF688B798B84
:103410008A8B9B8B81E089831A82888999899C8316
:103420008B8312C089818F5F89838B819C819C01F2
:10343000ADECBCEC0E9406299695879596958795EC
:10344000969587959C838B838B819C810A9750F7F7
:10345000888999899C838B8389818D8338C04B812E
:103460005C819A01ADECBCEC0E9406299C0136956A
:1034700027953695279536952795C901880F991F69
:10348000880F991F820F931F880F991F9A01281B7D
:10349000390B8981882F90E00197422F9E012A5F86
:1034A0003F4F820F931FFC0140838B819C819C01C5
:1034B000ADECBCEC0E94062996958795969587956C
:1034C000969587959C838B83898181508983898197
:1034D000882329F61A8210C08A81882F90E09E01E5
:1034E0002A5F3F4F820F931FFC018081805D0E9405
:1034F0006E118A818F5F8A839A818D81981760F31C
:103500000000000063960FB6F894DEBF0FBECDBF7B
:10351000DF91CF910895CF93DF9300D000D00F9229
:10352000CDB7DEB79B838A836C834D8380E40E9492
:103530006F0E19820EC08981882F90E02A813B810D
:10354000820F931FFC0180810E946E1189818F5F21
:1035500089838981883078F36D818C810E949D19DF
:1035600000000F900F900F900F900F90DF91CF9170
:103570000895CF93DF9300D00F92CDB7DEB78A8343
:103580006B8381E0898341E06B818A810E949B0289
:10359000898381E08093930089810F900F900F9031
:1035A000DF91CF910895CF93DF9300D000D0CDB7B6
:1035B000DEB78A836B834C8381E08983809193009B
:1035C000813039F44C816B818A810E949803898310
:1035D00001C0198289810F900F900F900F90DF9199
:1035E000CF910895CF93DF93CDB7DEB729970FB66C
:1035F000F894DEBF0FBECDBF8E836F835987488797
:1036000081E089838E818A838F818B831C8281E014
:103610008D83CE0102960E944023898388859985F7
:103620009093CD008093CC001092CE008981299692
:103630000FB6F894DEBF0FBECDBFDF91CF910895D6
:103640000F931F93CF93DF93CDB7DEB72B970FB6B2
:10365000F894DEBF0FBECDBF8D836E834F83398755
:1036600028871B870A8781E089831B828091CE008F
:10367000853008F02CC21C8231C08C81282F30E0AC
:10368000C901880F991F880F991F880F991F821BE6
:10369000930B880F991F8C569F4FFC0180819D8151
:1036A0009817C9F48C81282F30E0C901880F991F21
:1036B000880F991F880F991F821B930B880F991FE2
:1036C0008B569F4FFC0180819E81981721F481E0E9
:1036D0008B838C818A838C818F5F8C838091CE00D9
:1036E0009C81981718F48B81882339F28B81813063
:1036F00009F0B4C08A81282F30E0C901880F991FD2
:10370000880F991F880F991F821B930B880F991F91
:103710008A569F4F2F81FC0120838A81282F30E019
:10372000C901880F991F880F991F880F991F821B45
:10373000930B880F991F89569F4F28853985FC0167
:10374000318320838A81282F30E0C901880F991F97
:10375000880F991F880F991F821B930B880F991F41
:1037600087569F4F2A853B85FC01318320838A81C0
:10377000282F30E0C901880F991F880F991F880FE3
:10378000991F821B930B880F991F81569F4FFC0135
:10379000118210828A81282F30E0C901880F991F79
:1037A000880F991F880F991F821B930B880F991FF1
:1037B00085569F4F2A853B85FC01318320838A8172
:1037C000282F30E0C901880F991F880F991F880F93
:1037D000991F821B930B880F991F89569F4FFC01DD
:1037E000408151818A81282F30E0C901880F991FBB
:1037F000880F991F880F991F821B930B880F991FA1
:1038000085569F4FFC01808191812A81222F30E0D3
:10381000481B590BC901880F991F880F991F880FE2
:10382000991F821B930B880F991F83569F4FFC0192
:10383000518340838A81282F30E0C901880F991F66
:10384000880F991F880F991F821B930B880F991F50
:103850008F559F4F21E0FC01208340C18091CE0015
:10386000282F30E0C901880F991F880F991F880FF2
:10387000991F821B930B880F991F8C569F4F2D8188
:10388000FC0120838091CE00282F30E0C901880FF1
:10389000991F880F991F880F991F821B930B880F00
:1038A000991F8B569F4F2E81FC0120838091CE0063
:1038B000282F30E0C901880F991F880F991F880FA2
:1038C000991F821B930B880F991F8A569F4F2F8138
:1038D000FC0120838091CE00282F30E0C901880FA1
:1038E000991F880F991F880F991F821B930B880FB0
:1038F000991F89569F4F28853985FC013183208384
:103900008091CE00282F30E0C901880F991F880FC1
:10391000991F880F991F821B930B880F991F875639
:103920009F4F2A853B85FC01318320838091CE0007
:10393000282F30E0C901880F991F880F991F880F21
:10394000991F821B930B880F991F81569F4FFC0173
:10395000118210828091CE00282F30E0C901880F9B
:10396000991F880F991F880F991F821B930B880F2F
:10397000991F85569F4F2A853B85FC013183208303
:103980008091CE00282F30E0C901880F991F880F41
:10399000991F880F991F821B930B880F991F8956B7
:1039A0009F4FFC01408151818091CE00282F30E053
:1039B000C901880F991F880F991F880F991F821BB3
:1039C000930B880F991F85569F4FFC018081918131
:1039D0002091CE00222F30E0481B590BC901880FDF
:1039E000991F880F991F880F991F821B930B880FAF
:1039F000991F83569F4FFC01518340838091CE00D5
:103A0000282F30E0C901880F991F880F991F880F50
:103A1000991F821B930B880F991F8F559F4F21E091
:103A2000FC01208341E06E818D810E949B02809188
:103A3000CE008F5F8093CE008981813009F049C02C
:103A40008091CE00282F30E0C901880F991F880F80
:103A5000991F880F991F821B930B880F991F8A56F5
:103A60009F4FFC018081882F90E08230910599F171
:103A70008330910554F5009719F0019771F125C035
:103A80008091CE00282F30E0C901880F991F880F40
:103A9000991F880F991F821B930B880F991F8A56B5
:103AA0009F4FFC0180816AE77DE10E94E4248983C5
:103AB0008091CC009091CD00CC01A0E0B0E0AC01B1
:103AC000BD0180E00E94AD2309C0198207C01982A0
:103AD00005C0000003C0000001C0000089812B96D2
:103AE0000FB6F894DEBF0FBECDBFDF91CF911F910F
:103AF0000F910895CF93DF930F92CDB7DEB7198260
:103B00001EC18981282F30E0C901880F991F880FB5
:103B1000991F880F991F821B930B880F991F8F5530
:103B20009F4FFC018081813009F006C18981282FD7
:103B300030E0C901880F991F880F991F880F991FBE
:103B4000821B930B880F991F8A569F4FFC0180811F
:103B5000882309F0F1C08981282F30E0C901880F3E
:103B6000991F880F991F880F991F821B930B880F2D
:103B7000991F81569F4FFC0180819181892B49F5C6
:103B80008981282F30E0C901880F991F880F991F5C
:103B9000880F991F821B930B880F991F8B569F4F7D
:103BA000FC0150818981282F30E0C901880F991FBD
:103BB000880F991F880F991F821B930B880F991FDD
:103BC0008C569F4FFC01808141E0652F0E94980335
:103BD00051C08981282F30E0C901880F991F880FB3
:103BE000991F880F991F821B930B880F991F81566D
:103BF0009F4FFC01408151818981282F30E0C9010C
:103C0000880F991F880F991F880F991F821B930B8C
:103C1000880F991F85569F4FFC018081918148171D
:103C2000590741F58981282F30E0C901880F991F74
:103C3000880F991F880F991F821B930B880F991F5C
:103C40008B569F4FFC0150818981282F30E0C9019C
:103C5000880F991F880F991F880F991F821B930B3C
:103C6000880F991F8C569F4FFC01808140E0652F83
:103C70000E9498038981282F30E0C901880F991F7D
:103C8000880F991F880F991F821B930B880F991F0C
:103C900081569F4FFC0180819181AC014F5F5F4F46
:103CA000C901880F991F880F991F880F991F821BC0
:103CB000930B880F991F81569F4FFC0151834083BE
:103CC0008981282F30E0C901880F991F880F991F1B
:103CD000880F991F821B930B880F991F81569F4F46
:103CE000FC01408151818981282F30E0C901880F72
:103CF000991F880F991F880F991F821B930B880F9C
:103D0000991F89569F4FFC0180819181481759075F
:103D100099F48981282F30E0C901880F991F880FF5
:103D2000991F880F991F821B930B880F991F81562B
:103D30009F4FFC011182108289818F5F898380915E
:103D4000CE009981981708F4DCCE000000000F9097
:103D5000DF91CF910895CF93DF9300D000D00F92E1
:103D6000CDB7DEB78C836D8381E089831A821B8295
:103D70006AC08B81282F30E0C901880F991F880FF6
:103D8000991F880F991F821B930B880F991F8C56C0
:103D90009F4FFC0180819C81981709F051C08B8155
:103DA000282F30E0C901880F991F880F991F880FAD
:103DB000991F821B930B880F991F8B569F4FFC01F5
:103DC00080819D819817E1F581E08A838B81282F7E
:103DD00030E0C901880F991F880F991F880F991F1C
:103DE000821B930B880F991F8F559F4FFC011082E8
:103DF0008B81282F30E0C901880F991F880F991FE8
:103E0000880F991F821B930B880F991F8B569F4F0A
:103E1000FC0150818B81282F30E0C901880F991F48
:103E2000880F991F880F991F821B930B880F991F6A
:103E30008C569F4FFC01808140E0652F0E949803C3
:103E40008B818F5F8B838091CE009B81981720F4AC
:103E50008A81882309F48DCF8A81882309F4198205
:103E600089810F900F900F900F900F90DF91CF915D
:103E70000895CF93DF9300D0CDB7DEB78A8381E07A
:103E800089838DE290E0FC0120818DE290E02F7D1E
:103E9000FC0120838DE290E0FC0120818DE290E026
:103EA0002860FC0120838DE290E0FC0120818DE2FE
:103EB00090E02460FC01208341E065E081E00E9405
:103EC0009B0240E066E081E00E949B0241E067E0E7
:103ED00081E00E949B0241E064E081E00E949B023D
:103EE00041E067E081E00E9498038DE290E0FC01F0
:103EF00020818DE290E02061FC0120838DE290E042
:103F0000FC0120818DE290E02E7FFC0120838DE278
:103F100090E0FC0120818DE290E02D7FFC01208368
:103F20008EE290E0FC0120818EE290E02E7FFC0189
:103F300020838A818330B0F58DE290E0FC0180819E
:103F4000882F90E09C012C7F33278A81882F90E076
:103F500083709927282B392B8DE290E0FC0180811A
:103F6000982F822F292F282B8DE290E0FC012083AF
:103F70008A81843048F08EE290E0FC0120818EE25C
:103F800090E02160FC0120838DE290E0FC01208123
:103F90008DE290E02064FC0120831092D00010920A
:103FA000CF0001C0198289810F900F90DF91CF91CE
:103FB0000895CF93DF930F92CDB7DEB781E0898369
:103FC0008DE290E0FC0120818DE290E02F7DFC01EC
:103FD00020838DE290E0FC0120818DE290E028605A
:103FE000FC0120838DE290E0FC0120818DE290E0D5
:103FF0002460FC01208340E065E081E00E949B0298
:1040000041E066E081E00E949B0240E067E081E0E1
:104010000E949B0240E064E081E00E949B028DE2EE
:1040200090E0FC0120818DE290E02F7EFC01208356
:104030008DE290E0FC0120818DE290E02064FC01A3
:1040400020831092D2001092D10089810F90DF91CD
:10405000CF910895CF93DF9300D00F92CDB7DEB705
:1040600089837B836A838DE290E0FC0120818DE26D
:1040700090E02F77FC0120838FE290E02981FC0102
:10408000208340E064E081E00E9498038DE290E0AC
:10409000FC0120818DE290E02064FC01208300007F
:1040A0008EE290E0FC018081881F8827881F882F7E
:1040B00090E081709927019799F78FE290E0FC01D9
:1040C00020818A819B81FC0120838DE290E0FC01AC
:1040D00020818DE290E02F7BFC01208341E064E0B1
:1040E00081E00E94980300000F900F900F90DF91E5
:1040F000CF910895CF93DF9300D00F92CDB7DEB765
:1041000089837B836A838DE290E0FC0120818DE2CC
:1041100090E02F77FC0120838FE290E02981FC0161
:1041200020838DE290E0FC0120818DE290E020640C
:10413000FC01208300008EE290E0FC018081881F5A
:104140008827881F882F90E081709927019799F719
:104150008FE290E0FC0120818A819B81FC01208319
:104160008DE290E0FC0120818DE290E02F7BFC014C
:10417000208300000F900F900F90DF91CF91089552
:10418000CF93DF9300D00F92CDB7DEB789837B83C7
:104190006A83809178008A3071F58FE590E0FC01A8
:1041A00020818FE590E02068FC0120838A819B813B
:1041B0009093D0008093CF008DE290E0FC012081AD
:1041C0008DE290E02068FC0120838FE290E029815D
:1041D000FC01208340E064E081E00E94980381E0DC
:1041E000809378008DE290E0FC0120818DE290E0E8
:1041F0002064FC01208300000F900F900F90DF914E
:10420000CF910895CF93DF9300D00F92CDB7DEB753
:1042100089837B836A83809178008A3041F58FE5BA
:1042200090E0FC0120818FE590E02068FC01208374
:104230008A819B819093D2008093D1008DE290E09F
:10424000FC0120818DE290E02068FC012083109227
:1042500078008FE290E02981FC0120838DE290E0DC
:10426000FC0120818DE290E02064FC0120830000AD
:104270000F900F900F90DF91CF910895CF93DF9320
:10428000CDB7DEB7A8970FB6F894DEBF0FBECDBF8F
:104290009A8B898B7C8B6B8B1A821982A1C029899E
:1042A0003A8989819A81820F931FDC012C918B8935
:1042B0009C89BC01822F0E94C02089819A8101962D
:1042C0009A83898380E090E0A0E8BFE38B839C839E
:1042D000AD83BE8320E030E04AEF54E46B817C8103
:1042E0008D819E810E94502A698F7A8F8B8F9C8F3F
:1042F000898D9A8DAB8DBC8D8F839887A987BA875E
:1043000020E030E040E85FE36F81788589859A8519
:104310000E948D2988232CF481E090E09C878B8774
:1043200054C020E03FEF4FE757E46F8178858985DF
:104330009A850E944B2A1816D4F520E030E040E21E
:1043400051E46B817C818D819E810E94502A6D8F0A
:104350007E8F8F8F98A38D8D9E8DAF8DB8A18D8B05
:104360009E8BAF8BB88F6D897E898F89988D0E94C7
:10437000922969A37AA38BA39CA3A9A1BAA1BC8704
:10438000AB8710C088EC90E09E878D878D859E85D9
:104390000197F1F79E878D8700008B859C8501979B
:1043A0009C878B878B859C85892B61F719C06F81D2
:1043B000788589859A850E9492296DA37EA38FA313
:1043C00098A7EDA1FEA1FC87EB878B859C85988B38
:1043D0008F878F8598890197F1F7988B8F870000D9
:1043E00029893A8989819A81820F931FDC018C91F6
:1043F000882309F054CF00000000A8960FB6F89467
:10440000DEBF0FBECDBFDF91CF910895CF93DF9375
:1044100000D000D000D0CDB7DEB79C838B837E83E5
:104420006D831A82198213C02B813C8189819A8104
:10443000820F931FFC0120818D819E81BC01822F00
:104440000E94022189819A8101969A8389832B8116
:104450003C8189819A81820F931FFC01808188238E
:1044600019F70000000026960FB6F894DEBF0FBEC5
:10447000CDBFDF91CF9108951F920F920FB60F928B
:1044800011242F933F934F935F936F937F938F9359
:104490009F93AF93BF93EF93FF93CF93DF93CDB7EA
:1044A000DEB780917800813049F58091CF009091FE
:1044B000D000892B09F442C02091CF003091D00068
:1044C0008FE290E0FC018081F90109958DE290E096
:1044D000FC0120818DE290E02F7BFC0120838DE2A6
:1044E00090E0FC0120818DE290E02F77FC01208399
:1044F00041E064E081E00E94980320C08091780050
:104500008823E1F48DE290E0FC0120818DE290E0CF
:104510002F77FC0120832091D1003091D2008FE2CF
:1045200090E0FC018081F90109958DE290E0FC01A9
:1045300020818DE290E02F7BFC0120838AE0809334
:1045400078000000DF91CF91FF91EF91BF91AF9183
:104550009F918F917F916F915F914F913F912F919B
:104560000F900FBE0F901F901895CF93DF93CDB78C
:10457000DEB741E061E081E00E949B0241E062E041
:1045800081E00E949B0241E063E081E00E949B0287
:1045900041E064E080E00E949B0241E065E080E051
:1045A0000E949B0241E066E080E00E949B0241E0A5
:1045B00067E080E00E949B020000DF91CF910895A8
:1045C000CF93DF93CDB7DEB741E062E081E00E9498
:1045D00098030000DF91CF910895CF93DF93CDB77B
:1045E000DEB741E061E081E00E9498030000DF91C6
:1045F000CF910895CF93DF93CDB7DEB741E063E06D
:1046000081E00E9498030000DF91CF910895CF933D
:10461000DF930F92CDB7DEB7898389818295807F42
:10462000682F80E00E94560400000F90DF91CF9128
:104630000895CF93DF93CDB7DEB740E062E081E02D
:104640000E9498030000DF91CF910895CF93DF93EC
:10465000CDB7DEB740E061E081E00E949803000042
:10466000DF91CF910895CF93DF93CDB7DEB740E0D0
:1046700063E081E00E9498030000DF91CF910895EC
:10468000CF93DF9300D00F92CDB7DEB79B838A83A1
:1046900081E089838A819B81FC018081882F90E061
:1046A000892B09F051C08A819B81FC018281882F6E
:1046B00090E0029738F48A819B81FC01818180938C
:1046C000D50002C0198200008981813051F58A81AC
:1046D0009B81FC018381813099F48FE590E0FC019E
:1046E00020818FE590E02068FC01208389E590E03F
:1046F000FC01208189E590E02260FC01208311C04B
:104700008A819B81FC018381882351F489E590E0B3
:10471000FC01208189E590E02D7FFC01208301C010
:10472000198283E590E0FC01208183E590E0286018
:10473000FC01208383E590E0FC01208183E590E08B
:104740002F7BFC01208302C01982000089810F9019
:104750000F900F90DF91CF910895CF93DF9300D00A
:1047600000D000D0CDB7DEB78A834B835C836D83E6
:104770007E8381E089838A81882F90E0892BF9F4F8
:104780008B819C81AD81BE818F3F9105A105B105D3
:1047900009F098F48CE590E02B81FC01208383E5FF
:1047A00090E0FC018081887F9091D500282F292BF3
:1047B00083E590E0FC01208304C0198202C01982C5
:1047C0000000898126960FB6F894DEBF0FBECDBFDC
:1047D000DF91CF910895CF93DF9300D0CDB7DEB7AF
:1047E0008A8381E089838A81882F90E0892B51F424
:1047F00083E590E0FC01208183E590E0287FFC01C7
:10480000208302C01982000089810F900F90DF91F0
:10481000CF910895CF93DF9300D0CDB7DEB78A83D1
:1048200081E089838A81882F90E0892B29F482E5B1
:1048300090E0FC01108202C01982000089810F9073
:104840000F90DF91CF910895CF93DF9300D000D0E8
:10485000CDB7DEB78A837C836B8381E089838A81CD
:10486000882F90E0892B49F482E590E0FC012081BB
:104870008B819C81FC01208302C019820000898108
:104880000F900F900F900F90DF91CF910895CF93DD
:10489000DF9300D000D0CDB7DEB78A837C836B83F3
:1048A00081E089838B819C81892B11F419823AC024
:1048B0008A81882F90E0892B99F58091D5008130ED
:1048C00029F48B819C81FC0110822CC08091D50041
:1048D000823031F48B819C8121E0FC01208322C055
:1048E0008091D500833031F48B819C8128E0FC01DC
:1048F000208318C08091D500843031F48B819C8155
:1049000020E2FC0120830EC08091D500853031F477
:104910008B819C812DE7FC01208304C0198202C099
:104920001982000089810F900F900F900F90DF91F6
:10493000CF910895CF93DF9300D000D0CDB7DEB7ED
:104940008A837C836B8381E089838B819C81892B23
:1049500009F419828A81882F90E0892B61F488E517
:1049600090E0FC0180818695282F21708B819C81AD
:10497000FC01208302C01982000089810F900F90F2
:104980000F900F90DF91CF910895CF93DF9300D0D8
:10499000CDB7DEB78A8381E089838A81882F90E052
:1049A000892B51F488E590E0FC01208188E590E0B6
:1049B0002260FC01208302C01982000089810F90CF
:1049C0000F90DF91CF910895CF93DF9300D000D067
:1049D000CDB7DEB78A837C836B8381E089838B814B
:1049E0009C81892B19F481E089830EC08A81882FEC
:1049F00090E0892B39F48B819C819093D400809333
:104A0000D30002C01982000089810F900F900F908F
:104A10000F90DF91CF9108951F920F920FB60F92D2
:104A200011242F933F934F935F936F937F938F93B3
:104A30009F93AF93BF93EF93FF93CF93DF93CDB744
:104A4000DEB78091D3009091D400892B31F0809112
:104A5000D3009091D400FC0109950000DF91CF9123
:104A6000FF91EF91BF91AF919F918F917F916F9146
:104A70005F914F913F912F910F900FBE0F901F901C
:104A800018952F923F924F925F926F927F928F92E2
:104A90009F92AF92BF92CF92DF92EF92FF920F93CD
:104AA0001F93CF93DF9300D000D00F92CDB7DEB726
:104AB0009D838C8381E089838C819D81FC01808131
:104AC0009181A281B3814C015D01C12CD12C760171
:104AD000282D392D4A2D5B2D6C2D7D2D8E2D9F2D52
:104AE00004E00E947429222E332E442E552E662E69
:104AF000772E882E992EA22CB32CC42CD52CE62CE4
:104B0000F72C082D192D20E032E14AE750E060E053
:104B100070E080E090E00E941729822E932EA42E50
:104B2000B52EC62ED72EE82EF92E082D192D2A2D9A
:104B30003B2D4C2D5D2D6E2D7F2DC80101979B8344
:104B40008A838A819B818F3F910509F030F489E245
:104B500090E02A81FC01208316C080E490E0FC01F3
:104B6000208180E490E02F77FC0120838A819B8163
:104B7000292F332780E490E0FC01208389E290E034
:104B80002A81FC01208380E490E0FC01208180E404
:104B900090E02068FC01208380E490E0FC0120810B
:104BA00080E490E02F7DFC01208380E490E0FC0114
:104BB000208180E490E02F7EFC01208380E490E05F
:104BC000FC01208180E490E0277FFC01208380E4C9
:104BD00090E0FC01208180E490E02F7BFC012083A9
:104BE0001092D9008C819D81FC0184818823E1F49D
:104BF00080E490E0FC01208180E490E02D7FFC01C6
:104C0000208380E490E0FC01208180E490E02B7F11
:104C1000FC0120838AE290E0FC0120818AE290E09E
:104C20002B7FFC01208395C08C819D81FC018481B8
:104C3000813029F58AE290E0FC0120818AE290E04F
:104C40002861FC01208380E490E0FC01208180E465
:104C500090E02268FC01208380E490E0FC01208148
:104C600080E490E02B7FFC0120838AE290E0FC014D
:104C700020818AE290E02B7FFC0120836AC08C8136
:104C80009D81FC018481823029F58AE290E0FC015B
:104C900020818AE290E02861FC01208380E490E09A
:104CA000FC01208180E490E02468FC01208380E402
:104CB00090E0FC01208180E490E02D7FFC012083C6
:104CC0008AE290E0FC0120818AE290E02B7FFC01E7
:104CD00020833FC08C819D81FC018481833099F4C5
:104CE0008AE290E0FC0120818AE290E02861FC01E8
:104CF000208380E490E0FC01208180E490E026683D
:104D0000FC01208326C08C819D81FC018481873039
:104D1000F9F48AE290E0FC0120818AE290E02460CC
:104D2000FC0120838AE290E0FC0120818AE290E08D
:104D30002861FC01208380E490E0FC01208180E474
:104D400090E02668FC01208381E08093D90001C0B7
:104D500019828C819D81FC0185818093D8008C8192
:104D60009D81FC018581813051F48FE590E0FC014B
:104D700020818FE590E02068FC0120831AC08C819F
:104D80009D81FC018581882399F48AE290E0FC01F1
:104D900020818AE290E02F77FC0120838AE290E074
:104DA000FC0120818AE290E02F7DFC01208301C07C
:104DB000198289810F900F900F900F900F90DF91C3
:104DC000CF911F910F91FF90EF90DF90CF90BF9008
:104DD000AF909F908F907F906F905F904F903F909B
:104DE0002F900895CF93DF9300D00F92CDB7DEB709
:104DF0009B838A8381E0898300008BE290E0FC0141
:104E00008081829586958770882F90E081709927A0
:104E1000019799F78091D9008130E1F480E490E026
:104E2000FC018081382F3F7B8A819B81892F9927C4
:104E300086958295880F880F807C282F207480E4C7
:104E400090E0232BFC0120838CE290E02A81FC017E
:104E5000208305C08CE290E02A81FC0120838981B7
:104E60000F900F900F90DF91CF910895CF93DF9324
:104E700000D00F92CDB7DEB79B838A8381E0898310
:104E80008AE290E0FC0120818AE290E02061FC014E
:104E9000208300008BE290E0FC018081881F88273E
:104EA000881F882F90E081709927019799F700005B
:104EB0008BE290E0FC018081829586958770882F37
:104EC00090E081709927019799F78091D9008130FE
:104ED00041F58A819B81FC01808191819C013D7F0C
:104EE00080E490E0FC018081881F8827881F882F3C
:104EF00090E0982F8827990F88279270282B392BBC
:104F00008A819B81FC01318320838CE290E0FC014B
:104F10008081282F30E08A819B81FC0131832083AE
:104F20000BC08CE290E0FC018081282F30E08A8168
:104F30009B81FC013183208389810F900F900F901A
:104F4000DF91CF910895CF93DF9300D00F92CDB72B
:104F5000DEB79B838A8381E089838A819B81892B49
:104F6000C9F08AE290E0FC0120818AE290E02061B1
:104F7000FC0120838AE290E0FC0120818AE290E03B
:104F80002068FC0120838A819B819093DD008093BF
:104F9000DC0001C0198289810F900F900F90DF9182
:104FA000CF9108951F920F920FB60F9211242F9355
:104FB0003F934F935F936F937F938F939F93AF93A1
:104FC000BF93EF93FF93CF93DF9300D0CDB7DEB7BE
:104FD0008091DC009091DD00892B09F44FC0809115
:104FE000D900813069F589819A819C013D7F80E4F7
:104FF00090E0FC018081881F8827881F882F90E01F
:10500000982F8827990F88279270822B932B9A8349
:10501000898300008BE290E0FC0180818295869577
:105020008770882F90E081709927019799F78CE21B
:1050300090E0FC018081882F90E09A83898316C0DC
:1050400000008BE290E0FC0180818295869587705C
:10505000882F90E081709927019799F78CE290E072
:10506000FC018081882F90E09A8389832091DC0065
:105070003091DD0089819A81F901099500000F9036
:105080000F90DF91CF91FF91EF91BF91AF919F91E1
:105090008F917F916F915F914F913F912F910F90E1
:1050A0000FBE0F901F901895CF93DF9300D00F92F3
:1050B000CDB7DEB79B838A8381E089838A819B8118
:1050C000892BC9F08AE290E0FC0120818AE290E01D
:1050D0002860FC0120838A819B819093DB00809370
:1050E000DA008AE290E0FC0120818AE290E020620E
:1050F000FC01208301C0198289810F900F900F90CD
:10510000DF91CF9108951F920F920FB60F92112445
:105110002F933F938F939F93EF93FF93CF93DF93BF
:10512000CDB7DEB78091DA009091DB00FC012081E1
:1051300031818CE290E0FC01208300008BE290E062
:10514000FC0180818295869586958370882F90E0FA
:1051500081709927019791F78BE290E0FC01208103
:105160008BE290E02064FC0120838AE290E0FC0165
:1051700020818AE290E02F7DFC0120830000DF91F6
:10518000CF91FF91EF919F918F913F912F910F9030
:105190000FBE0F901F901895CF93DF93CDB7DEB75A
:1051A00029970FB6F894DEBF0FBECDBF86E0E9E7C2
:1051B000F0E0DE01149601900D928A95E1F7CE01A0
:1051C00004960E94412587E00E94391FCE01019676
:1051D0000E94362789819A81C19751F489819A81E9
:1051E000282FCE010396BC01822F0E942A20EECFE9
:1051F00089819A81C09751F789819A81282FCE01A0
:105200000396BC01822F0E942A20E0CFA29FB0010A
:10521000B39FC001A39F700D811D1124911DB29FEA
:10522000700D811D1124911D0895689401C0E894AA
:105230008F929F92CF93DF930E942329DF91CF918A
:105240009F908F90089588249924F401E401B0E49C
:105250009F93AA279A158B049C04ED05FE05CF05A4
:10526000D007A10798F4AD2FDC2FCF2FFE2FE92D0B
:10527000982C892E982F872F762F652F542F432F08
:10528000322F2227B85031F7BF9127C01B2EBF9174
:10529000BB27220F331F441F551F661F771F881F10
:1052A000991F881C991CEE1FFF1FCC1FDD1FAA1F12
:1052B000BB1F8A149B04EC05FD05CE05DF05A00786
:1052C000B10748F08A189B08EC09FD09CE09DF09EF
:1052D000A00BB10B21601A94E1F62EF49401AF01FA
:1052E000BE01CD01000C0895002E083090F0982FDB
:1052F000872F762F652F542F432F322F22270850C8
:10530000F4CF220F331F441F551F661F771F881FBE
:10531000991F0A95B2F7002D08950E94FE2908F4FE
:1053200081E008950E942A2A88F09F5798F0B92FAB
:105330009927B751B0F0E1F0660F771F881F991FCA
:105340001AF0BA95C9F714C0B13091F00E94442AFE
:10535000B1E008950C94442A672F782F8827B85F0E
:1053600039F0B93FCCF3869577956795B395D9F722
:105370003EF490958095709561957F4F8F4F9F4F2C
:105380000895E89409C097FB3EF490958095709538
:1053900061957F4F8F4F9F4F9923A9F0F92F96E981
:1053A000BB279395F695879577956795B795F111F6
:1053B000F8CFFAF4BB0F11F460FF1BC06F5F7F4F93
:1053C0008F4F9F4F16C0882311F096E911C07723A5
:1053D00021F09EE8872F762F05C0662371F096E8AE
:1053E000862F70E060E02AF09A95660F771F881F7D
:1053F000DAF7880F9695879597F90895990F000821
:10540000550FAA0BE0E8FEEF16161706E807F90796
:10541000C0F012161306E407F50798F0621B730B31
:10542000840B950B39F40A2661F0232B242B252BB2
:1054300021F408950A2609F4A140A6958FEF811D55
:10544000811D089557FD9058440F551F59F05F3F37
:1054500071F04795880F97FB991F61F09F3F79F096
:1054600087950895121613061406551FF2CF469518
:10547000F1DF08C0161617061806991FF1CF86959A
:105480007105610508940895E894BB27662777277E
:10549000CB0197F908950E94FE2908F48FEF089533
:1054A0000E94632A0C94D42A0E94C62A38F00E94D3
:1054B000CD2A20F0952311F00C94BD2A0C94C32A18
:1054C00011240C94452A0E94222A70F3959FC1F35F
:1054D000950F50E0551F629FF001729FBB27F00DA2
:1054E000B11D639FAA27F00DB11DAA1F649F6627F7
:1054F000B00DA11D661F829F2227B00DA11D621F46
:10550000739FB00DA11D621F839FA00D611D221FFF
:10551000749F3327A00D611D231F849F600D211DE3
:10552000822F762F6A2F11249F5750409AF0F1F066
:1055300088234AF0EE0FFF1FBB1F661F771F881FCF
:1055400091505040A9F79E3F510580F00C94BD2A20
:105550000C94452A5F3FE4F3983ED4F38695779503
:105560006795B795F795E7959F5FC1F7FE2B880F75
:10557000911D9695879597F9089597F99F6780E80B
:1055800070E060E008959FEF80EC089500240A9495
:105590001616170618060906089500240A9412160E
:1055A0001306140605060895092E0394000C11F441
:1055B000882352F0BB0F40F4BF2B11F460FF04C0EE
:0E55C0006F5F7F4F8F4F9F4F0895F894FFCF7E
:1055CE003132333534353635373839350000000051
:1055DE0000001F19191901010A802500000300009F
:00000001FF
